{
	"chainlink-automation/CountWithLog.sol": {
		"CountWithLog": {
			"abi": [
				{
					"inputs": [],
					"stateMutability": "nonpayable",
					"type": "constructor"
				},
				{
					"anonymous": false,
					"inputs": [
						{
							"indexed": true,
							"internalType": "address",
							"name": "msgSender",
							"type": "address"
						}
					],
					"name": "CountedBy",
					"type": "event"
				},
				{
					"inputs": [
						{
							"internalType": "bytes32",
							"name": "_address",
							"type": "bytes32"
						}
					],
					"name": "bytes32ToAddress",
					"outputs": [
						{
							"internalType": "address",
							"name": "",
							"type": "address"
						}
					],
					"stateMutability": "pure",
					"type": "function"
				},
				{
					"inputs": [
						{
							"components": [
								{
									"internalType": "uint256",
									"name": "index",
									"type": "uint256"
								},
								{
									"internalType": "uint256",
									"name": "timestamp",
									"type": "uint256"
								},
								{
									"internalType": "bytes32",
									"name": "txHash",
									"type": "bytes32"
								},
								{
									"internalType": "uint256",
									"name": "blockNumber",
									"type": "uint256"
								},
								{
									"internalType": "bytes32",
									"name": "blockHash",
									"type": "bytes32"
								},
								{
									"internalType": "address",
									"name": "source",
									"type": "address"
								},
								{
									"internalType": "bytes32[]",
									"name": "topics",
									"type": "bytes32[]"
								},
								{
									"internalType": "bytes",
									"name": "data",
									"type": "bytes"
								}
							],
							"internalType": "struct Log",
							"name": "log",
							"type": "tuple"
						},
						{
							"internalType": "bytes",
							"name": "",
							"type": "bytes"
						}
					],
					"name": "checkLog",
					"outputs": [
						{
							"internalType": "bool",
							"name": "upkeepNeeded",
							"type": "bool"
						},
						{
							"internalType": "bytes",
							"name": "performData",
							"type": "bytes"
						}
					],
					"stateMutability": "pure",
					"type": "function"
				},
				{
					"inputs": [],
					"name": "counted",
					"outputs": [
						{
							"internalType": "uint256",
							"name": "",
							"type": "uint256"
						}
					],
					"stateMutability": "view",
					"type": "function"
				},
				{
					"inputs": [
						{
							"internalType": "bytes",
							"name": "performData",
							"type": "bytes"
						}
					],
					"name": "performUpkeep",
					"outputs": [],
					"stateMutability": "nonpayable",
					"type": "function"
				}
			],
			"devdoc": {
				"kind": "dev",
				"methods": {},
				"version": 1
			},
			"evm": {
				"assembly": "    /* \"chainlink-automation/CountWithLog.sol\":789:1565  contract CountWithLog is ILogAutomation {... */\n  mstore(0x40, 0x80)\n    /* \"chainlink-automation/CountWithLog.sol\":909:910  0 */\n  0x00\n    /* \"chainlink-automation/CountWithLog.sol\":884:910  uint256 public counted = 0 */\n  dup1\n  sstore\n    /* \"chainlink-automation/CountWithLog.sol\":917:933  constructor() {} */\n  callvalue\n  dup1\n  iszero\n  tag_1\n  jumpi\n  0x00\n  dup1\n  revert\ntag_1:\n  pop\n    /* \"chainlink-automation/CountWithLog.sol\":789:1565  contract CountWithLog is ILogAutomation {... */\n  dataSize(sub_0)\n  dup1\n  dataOffset(sub_0)\n  0x00\n  codecopy\n  0x00\n  return\nstop\n\nsub_0: assembly {\n        /* \"chainlink-automation/CountWithLog.sol\":789:1565  contract CountWithLog is ILogAutomation {... */\n      mstore(0x40, 0x80)\n      callvalue\n      dup1\n      iszero\n      tag_1\n      jumpi\n      0x00\n      dup1\n      revert\n    tag_1:\n      pop\n      jumpi(tag_2, lt(calldatasize, 0x04))\n      shr(0xe0, calldataload(0x00))\n      dup1\n      0x40691db4\n      eq\n      tag_3\n      jumpi\n      dup1\n      0x4585e33b\n      eq\n      tag_4\n      jumpi\n      dup1\n      0x5ced058e\n      eq\n      tag_5\n      jumpi\n      dup1\n      0xf937f910\n      eq\n      tag_6\n      jumpi\n    tag_2:\n      0x00\n      dup1\n      revert\n        /* \"chainlink-automation/CountWithLog.sol\":939:1221  function checkLog(... */\n    tag_3:\n      tag_7\n      tag_8\n      calldatasize\n      0x04\n      tag_9\n      jump\t// in\n    tag_8:\n      tag_10\n      jump\t// in\n    tag_7:\n      mload(0x40)\n      tag_11\n      swap3\n      swap2\n      swap1\n      tag_12\n      jump\t// in\n    tag_11:\n      mload(0x40)\n      dup1\n      swap2\n      sub\n      swap1\n      return\n        /* \"chainlink-automation/CountWithLog.sol\":1227:1424  function performUpkeep(bytes calldata performData) external override {... */\n    tag_4:\n      tag_13\n      tag_14\n      calldatasize\n      0x04\n      tag_15\n      jump\t// in\n    tag_14:\n      tag_16\n      jump\t// in\n    tag_13:\n      stop\n        /* \"chainlink-automation/CountWithLog.sol\":1430:1563  function bytes32ToAddress(bytes32 _address) public pure returns (address) {... */\n    tag_5:\n      tag_17\n      tag_18\n      calldatasize\n      0x04\n      tag_19\n      jump\t// in\n    tag_18:\n        /* \"chainlink-automation/CountWithLog.sol\":1545:1553  _address */\n      swap1\n        /* \"chainlink-automation/CountWithLog.sol\":1430:1563  function bytes32ToAddress(bytes32 _address) public pure returns (address) {... */\n      jump\n    tag_17:\n      mload(0x40)\n      sub(shl(0xa0, 0x01), 0x01)\n        /* \"#utility.yul\":2908:2940   */\n      swap1\n      swap2\n      and\n        /* \"#utility.yul\":2890:2941   */\n      dup2\n      mstore\n        /* \"#utility.yul\":2878:2880   */\n      0x20\n        /* \"#utility.yul\":2863:2881   */\n      add\n        /* \"chainlink-automation/CountWithLog.sol\":1430:1563  function bytes32ToAddress(bytes32 _address) public pure returns (address) {... */\n      tag_11\n        /* \"#utility.yul\":2744:2947   */\n      jump\n        /* \"chainlink-automation/CountWithLog.sol\":884:910  uint256 public counted = 0 */\n    tag_6:\n      tag_23\n      sload(0x00)\n      dup2\n      jump\n    tag_23:\n      mload(0x40)\n        /* \"#utility.yul\":3098:3123   */\n      swap1\n      dup2\n      mstore\n        /* \"#utility.yul\":3086:3088   */\n      0x20\n        /* \"#utility.yul\":3071:3089   */\n      add\n        /* \"chainlink-automation/CountWithLog.sol\":884:910  uint256 public counted = 0 */\n      tag_11\n        /* \"#utility.yul\":2952:3129   */\n      jump\n        /* \"chainlink-automation/CountWithLog.sol\":939:1221  function checkLog(... */\n    tag_10:\n        /* \"chainlink-automation/CountWithLog.sol\":1104:1108  true */\n      0x01\n        /* \"chainlink-automation/CountWithLog.sol\":1053:1077  bytes memory performData */\n      0x60\n        /* \"chainlink-automation/CountWithLog.sol\":1034:1051  bool upkeepNeeded */\n      0x00\n        /* \"chainlink-automation/CountWithLog.sol\":1138:1169  bytes32ToAddress(log.topics[1]) */\n      tag_28\n        /* \"chainlink-automation/CountWithLog.sol\":1155:1165  log.topics */\n      tag_29\n      0xc0\n      dup8\n      add\n        /* \"chainlink-automation/CountWithLog.sol\":1155:1158  log */\n      dup8\n        /* \"chainlink-automation/CountWithLog.sol\":1155:1165  log.topics */\n      tag_30\n      jump\t// in\n    tag_29:\n        /* \"chainlink-automation/CountWithLog.sol\":1166:1167  1 */\n      0x01\n        /* \"chainlink-automation/CountWithLog.sol\":1155:1168  log.topics[1] */\n      dup2\n      dup2\n      lt\n      tag_32\n      jumpi\n      tag_32\n      tag_33\n      jump\t// in\n    tag_32:\n      swap1\n      pop\n      0x20\n      mul\n      add\n      calldataload\n        /* \"chainlink-automation/CountWithLog.sol\":1545:1553  _address */\n      swap1\n        /* \"chainlink-automation/CountWithLog.sol\":1430:1563  function bytes32ToAddress(bytes32 _address) public pure returns (address) {... */\n      jump\n        /* \"chainlink-automation/CountWithLog.sol\":1138:1169  bytes32ToAddress(log.topics[1]) */\n    tag_28:\n        /* \"chainlink-automation/CountWithLog.sol\":1193:1214  abi.encode(logSender) */\n      0x40\n      dup1\n      mload\n      sub(shl(0xa0, 0x01), 0x01)\n        /* \"#utility.yul\":2908:2940   */\n      dup4\n      and\n        /* \"chainlink-automation/CountWithLog.sol\":1193:1214  abi.encode(logSender) */\n      0x20\n      dup3\n      add\n        /* \"#utility.yul\":2890:2941   */\n      mstore\n        /* \"chainlink-automation/CountWithLog.sol\":1118:1169  address logSender = bytes32ToAddress(log.topics[1]) */\n      swap2\n      swap3\n      pop\n        /* \"#utility.yul\":2863:2881   */\n      add\n        /* \"chainlink-automation/CountWithLog.sol\":1193:1214  abi.encode(logSender) */\n      mload(0x40)\n      0x20\n      dup2\n      dup4\n      sub\n      sub\n      dup2\n      mstore\n      swap1\n      0x40\n      mstore\n        /* \"chainlink-automation/CountWithLog.sol\":1179:1214  performData = abi.encode(logSender) */\n      swap2\n      pop\n        /* \"chainlink-automation/CountWithLog.sol\":1079:1221  {... */\n      pop\n        /* \"chainlink-automation/CountWithLog.sol\":939:1221  function checkLog(... */\n      swap3\n      pop\n      swap3\n      swap1\n      pop\n      jump\t// out\n        /* \"chainlink-automation/CountWithLog.sol\":1227:1424  function performUpkeep(bytes calldata performData) external override {... */\n    tag_16:\n        /* \"chainlink-automation/CountWithLog.sol\":1317:1318  1 */\n      0x01\n        /* \"chainlink-automation/CountWithLog.sol\":1306:1313  counted */\n      0x00\n      dup1\n        /* \"chainlink-automation/CountWithLog.sol\":1306:1318  counted += 1 */\n      dup3\n      dup3\n      sload\n      tag_36\n      swap2\n      swap1\n      tag_37\n      jump\t// in\n    tag_36:\n      swap1\n      swap2\n      sstore\n      pop\n        /* \"chainlink-automation/CountWithLog.sol\":1328:1345  address logSender */\n      0x00\n      swap1\n      pop\n        /* \"chainlink-automation/CountWithLog.sol\":1348:1382  abi.decode(performData, (address)) */\n      tag_38\n      dup3\n      dup5\n      add\n        /* \"chainlink-automation/CountWithLog.sol\":1359:1370  performData */\n      dup5\n        /* \"chainlink-automation/CountWithLog.sol\":1348:1382  abi.decode(performData, (address)) */\n      tag_39\n      jump\t// in\n    tag_38:\n        /* \"chainlink-automation/CountWithLog.sol\":1397:1417  CountedBy(logSender) */\n      mload(0x40)\n        /* \"chainlink-automation/CountWithLog.sol\":1328:1382  address logSender = abi.decode(performData, (address)) */\n      swap1\n      swap2\n      pop\n      sub(shl(0xa0, 0x01), 0x01)\n        /* \"chainlink-automation/CountWithLog.sol\":1397:1417  CountedBy(logSender) */\n      dup3\n      and\n      swap1\n      0x9dc7dc9b337aa2897cc3559260e1bf9eae7db329f1121de7c27a28fca8b2eed1\n      swap1\n      0x00\n      swap1\n      log2\n        /* \"chainlink-automation/CountWithLog.sol\":1296:1424  {... */\n      pop\n        /* \"chainlink-automation/CountWithLog.sol\":1227:1424  function performUpkeep(bytes calldata performData) external override {... */\n      pop\n      pop\n      jump\t// out\n        /* \"#utility.yul\":14:141   */\n    tag_41:\n        /* \"#utility.yul\":75:85   */\n      0x4e487b71\n        /* \"#utility.yul\":70:73   */\n      0xe0\n        /* \"#utility.yul\":66:86   */\n      shl\n        /* \"#utility.yul\":63:64   */\n      0x00\n        /* \"#utility.yul\":56:87   */\n      mstore\n        /* \"#utility.yul\":106:110   */\n      0x41\n        /* \"#utility.yul\":103:104   */\n      0x04\n        /* \"#utility.yul\":96:111   */\n      mstore\n        /* \"#utility.yul\":130:134   */\n      0x24\n        /* \"#utility.yul\":127:128   */\n      0x00\n        /* \"#utility.yul\":120:135   */\n      revert\n        /* \"#utility.yul\":146:1326   */\n    tag_9:\n        /* \"#utility.yul\":244:250   */\n      0x00\n        /* \"#utility.yul\":252:258   */\n      dup1\n        /* \"#utility.yul\":305:307   */\n      0x40\n        /* \"#utility.yul\":293:302   */\n      dup4\n        /* \"#utility.yul\":284:291   */\n      dup6\n        /* \"#utility.yul\":280:303   */\n      sub\n        /* \"#utility.yul\":276:308   */\n      slt\n        /* \"#utility.yul\":273:325   */\n      iszero\n      tag_45\n      jumpi\n        /* \"#utility.yul\":321:322   */\n      0x00\n        /* \"#utility.yul\":318:319   */\n      dup1\n        /* \"#utility.yul\":311:323   */\n      revert\n        /* \"#utility.yul\":273:325   */\n    tag_45:\n        /* \"#utility.yul\":361:370   */\n      dup3\n        /* \"#utility.yul\":348:371   */\n      calldataload\n        /* \"#utility.yul\":390:408   */\n      0xffffffffffffffff\n        /* \"#utility.yul\":431:433   */\n      dup1\n        /* \"#utility.yul\":423:429   */\n      dup3\n        /* \"#utility.yul\":420:434   */\n      gt\n        /* \"#utility.yul\":417:451   */\n      iszero\n      tag_46\n      jumpi\n        /* \"#utility.yul\":447:448   */\n      0x00\n        /* \"#utility.yul\":444:445   */\n      dup1\n        /* \"#utility.yul\":437:449   */\n      revert\n        /* \"#utility.yul\":417:451   */\n    tag_46:\n        /* \"#utility.yul\":470:492   */\n      swap1\n      dup5\n      add\n      swap1\n        /* \"#utility.yul\":526:529   */\n      0x0100\n        /* \"#utility.yul\":508:524   */\n      dup3\n      dup8\n      sub\n        /* \"#utility.yul\":504:530   */\n      slt\n        /* \"#utility.yul\":501:547   */\n      iszero\n      tag_47\n      jumpi\n        /* \"#utility.yul\":543:544   */\n      0x00\n        /* \"#utility.yul\":540:541   */\n      dup1\n        /* \"#utility.yul\":533:545   */\n      revert\n        /* \"#utility.yul\":501:547   */\n    tag_47:\n        /* \"#utility.yul\":566:568   */\n      swap1\n      swap3\n      pop\n        /* \"#utility.yul\":621:623   */\n      0x20\n        /* \"#utility.yul\":606:624   */\n      dup5\n      add\n        /* \"#utility.yul\":593:625   */\n      calldataload\n      swap1\n        /* \"#utility.yul\":637:653   */\n      dup1\n      dup3\n      gt\n        /* \"#utility.yul\":634:670   */\n      iszero\n      tag_48\n      jumpi\n        /* \"#utility.yul\":666:667   */\n      0x00\n        /* \"#utility.yul\":663:664   */\n      dup1\n        /* \"#utility.yul\":656:668   */\n      revert\n        /* \"#utility.yul\":634:670   */\n    tag_48:\n        /* \"#utility.yul\":704:712   */\n      dup2\n        /* \"#utility.yul\":693:702   */\n      dup6\n        /* \"#utility.yul\":689:713   */\n      add\n        /* \"#utility.yul\":679:713   */\n      swap2\n      pop\n        /* \"#utility.yul\":751:758   */\n      dup6\n        /* \"#utility.yul\":744:748   */\n      0x1f\n        /* \"#utility.yul\":740:742   */\n      dup4\n        /* \"#utility.yul\":736:749   */\n      add\n        /* \"#utility.yul\":732:759   */\n      slt\n        /* \"#utility.yul\":722:777   */\n      tag_49\n      jumpi\n        /* \"#utility.yul\":773:774   */\n      0x00\n        /* \"#utility.yul\":770:771   */\n      dup1\n        /* \"#utility.yul\":763:775   */\n      revert\n        /* \"#utility.yul\":722:777   */\n    tag_49:\n        /* \"#utility.yul\":809:811   */\n      dup2\n        /* \"#utility.yul\":796:812   */\n      calldataload\n        /* \"#utility.yul\":831:833   */\n      dup2\n        /* \"#utility.yul\":827:829   */\n      dup2\n        /* \"#utility.yul\":824:834   */\n      gt\n        /* \"#utility.yul\":821:857   */\n      iszero\n      tag_51\n      jumpi\n        /* \"#utility.yul\":837:855   */\n      tag_51\n      tag_41\n      jump\t// in\n    tag_51:\n        /* \"#utility.yul\":912:914   */\n      0x40\n        /* \"#utility.yul\":906:915   */\n      mload\n        /* \"#utility.yul\":880:882   */\n      0x1f\n        /* \"#utility.yul\":966:979   */\n      dup3\n      add\n      not(0x1f)\n        /* \"#utility.yul\":962:984   */\n      swap1\n      dup2\n      and\n        /* \"#utility.yul\":986:988   */\n      0x3f\n        /* \"#utility.yul\":958:989   */\n      add\n        /* \"#utility.yul\":954:994   */\n      and\n        /* \"#utility.yul\":942:995   */\n      dup2\n      add\n      swap1\n        /* \"#utility.yul\":1010:1028   */\n      dup4\n      dup3\n      gt\n        /* \"#utility.yul\":1030:1052   */\n      dup2\n      dup4\n      lt\n        /* \"#utility.yul\":1007:1053   */\n      or\n        /* \"#utility.yul\":1004:1076   */\n      iszero\n      tag_53\n      jumpi\n        /* \"#utility.yul\":1056:1074   */\n      tag_53\n      tag_41\n      jump\t// in\n    tag_53:\n        /* \"#utility.yul\":1096:1106   */\n      dup2\n        /* \"#utility.yul\":1092:1094   */\n      0x40\n        /* \"#utility.yul\":1085:1107   */\n      mstore\n        /* \"#utility.yul\":1131:1133   */\n      dup3\n        /* \"#utility.yul\":1123:1129   */\n      dup2\n        /* \"#utility.yul\":1116:1134   */\n      mstore\n        /* \"#utility.yul\":1171:1178   */\n      dup9\n        /* \"#utility.yul\":1166:1168   */\n      0x20\n        /* \"#utility.yul\":1161:1163   */\n      dup5\n        /* \"#utility.yul\":1157:1159   */\n      dup8\n        /* \"#utility.yul\":1153:1164   */\n      add\n        /* \"#utility.yul\":1149:1169   */\n      add\n        /* \"#utility.yul\":1146:1179   */\n      gt\n        /* \"#utility.yul\":1143:1196   */\n      iszero\n      tag_54\n      jumpi\n        /* \"#utility.yul\":1192:1193   */\n      0x00\n        /* \"#utility.yul\":1189:1190   */\n      dup1\n        /* \"#utility.yul\":1182:1194   */\n      revert\n        /* \"#utility.yul\":1143:1196   */\n    tag_54:\n        /* \"#utility.yul\":1248:1250   */\n      dup3\n        /* \"#utility.yul\":1243:1245   */\n      0x20\n        /* \"#utility.yul\":1239:1241   */\n      dup7\n        /* \"#utility.yul\":1235:1246   */\n      add\n        /* \"#utility.yul\":1230:1232   */\n      0x20\n        /* \"#utility.yul\":1222:1228   */\n      dup4\n        /* \"#utility.yul\":1218:1233   */\n      add\n        /* \"#utility.yul\":1205:1251   */\n      calldatacopy\n        /* \"#utility.yul\":1293:1294   */\n      0x00\n        /* \"#utility.yul\":1288:1290   */\n      0x20\n        /* \"#utility.yul\":1283:1285   */\n      dup5\n        /* \"#utility.yul\":1275:1281   */\n      dup4\n        /* \"#utility.yul\":1271:1286   */\n      add\n        /* \"#utility.yul\":1267:1291   */\n      add\n        /* \"#utility.yul\":1260:1295   */\n      mstore\n        /* \"#utility.yul\":1314:1320   */\n      dup1\n        /* \"#utility.yul\":1304:1320   */\n      swap6\n      pop\n      pop\n      pop\n      pop\n      pop\n      pop\n        /* \"#utility.yul\":146:1326   */\n      swap3\n      pop\n      swap3\n      swap1\n      pop\n      jump\t// out\n        /* \"#utility.yul\":1331:1958   */\n    tag_12:\n        /* \"#utility.yul\":1514:1520   */\n      dup3\n        /* \"#utility.yul\":1507:1521   */\n      iszero\n        /* \"#utility.yul\":1500:1522   */\n      iszero\n        /* \"#utility.yul\":1489:1498   */\n      dup2\n        /* \"#utility.yul\":1482:1523   */\n      mstore\n        /* \"#utility.yul\":1463:1467   */\n      0x00\n        /* \"#utility.yul\":1542:1544   */\n      0x20\n        /* \"#utility.yul\":1580:1582   */\n      0x40\n        /* \"#utility.yul\":1575:1577   */\n      dup2\n        /* \"#utility.yul\":1564:1573   */\n      dup5\n        /* \"#utility.yul\":1560:1578   */\n      add\n        /* \"#utility.yul\":1553:1583   */\n      mstore\n        /* \"#utility.yul\":1612:1618   */\n      dup4\n        /* \"#utility.yul\":1606:1619   */\n      mload\n        /* \"#utility.yul\":1655:1661   */\n      dup1\n        /* \"#utility.yul\":1650:1652   */\n      0x40\n        /* \"#utility.yul\":1639:1648   */\n      dup6\n        /* \"#utility.yul\":1635:1653   */\n      add\n        /* \"#utility.yul\":1628:1662   */\n      mstore\n        /* \"#utility.yul\":1680:1681   */\n      0x00\n        /* \"#utility.yul\":1690:1830   */\n    tag_56:\n        /* \"#utility.yul\":1704:1710   */\n      dup2\n        /* \"#utility.yul\":1701:1702   */\n      dup2\n        /* \"#utility.yul\":1698:1711   */\n      lt\n        /* \"#utility.yul\":1690:1830   */\n      iszero\n      tag_58\n      jumpi\n        /* \"#utility.yul\":1799:1813   */\n      dup6\n      dup2\n      add\n        /* \"#utility.yul\":1795:1818   */\n      dup4\n      add\n        /* \"#utility.yul\":1789:1819   */\n      mload\n        /* \"#utility.yul\":1765:1782   */\n      dup6\n      dup3\n      add\n        /* \"#utility.yul\":1784:1786   */\n      0x60\n        /* \"#utility.yul\":1761:1787   */\n      add\n        /* \"#utility.yul\":1754:1820   */\n      mstore\n        /* \"#utility.yul\":1719:1729   */\n      dup3\n      add\n        /* \"#utility.yul\":1690:1830   */\n      jump(tag_56)\n    tag_58:\n        /* \"#utility.yul\":1694:1697   */\n      pop\n        /* \"#utility.yul\":1879:1880   */\n      0x00\n        /* \"#utility.yul\":1874:1876   */\n      0x60\n        /* \"#utility.yul\":1865:1871   */\n      dup3\n        /* \"#utility.yul\":1854:1863   */\n      dup7\n        /* \"#utility.yul\":1850:1872   */\n      add\n        /* \"#utility.yul\":1846:1877   */\n      add\n        /* \"#utility.yul\":1839:1881   */\n      mstore\n        /* \"#utility.yul\":1949:1951   */\n      0x60\n        /* \"#utility.yul\":1942:1944   */\n      0x1f\n        /* \"#utility.yul\":1938:1945   */\n      not\n        /* \"#utility.yul\":1933:1935   */\n      0x1f\n        /* \"#utility.yul\":1925:1931   */\n      dup4\n        /* \"#utility.yul\":1921:1936   */\n      add\n        /* \"#utility.yul\":1917:1946   */\n      and\n        /* \"#utility.yul\":1906:1915   */\n      dup6\n        /* \"#utility.yul\":1902:1947   */\n      add\n        /* \"#utility.yul\":1898:1952   */\n      add\n        /* \"#utility.yul\":1890:1952   */\n      swap3\n      pop\n      pop\n      pop\n        /* \"#utility.yul\":1331:1958   */\n      swap4\n      swap3\n      pop\n      pop\n      pop\n      jump\t// out\n        /* \"#utility.yul\":1963:2554   */\n    tag_15:\n        /* \"#utility.yul\":2033:2039   */\n      0x00\n        /* \"#utility.yul\":2041:2047   */\n      dup1\n        /* \"#utility.yul\":2094:2096   */\n      0x20\n        /* \"#utility.yul\":2082:2091   */\n      dup4\n        /* \"#utility.yul\":2073:2080   */\n      dup6\n        /* \"#utility.yul\":2069:2092   */\n      sub\n        /* \"#utility.yul\":2065:2097   */\n      slt\n        /* \"#utility.yul\":2062:2114   */\n      iszero\n      tag_60\n      jumpi\n        /* \"#utility.yul\":2110:2111   */\n      0x00\n        /* \"#utility.yul\":2107:2108   */\n      dup1\n        /* \"#utility.yul\":2100:2112   */\n      revert\n        /* \"#utility.yul\":2062:2114   */\n    tag_60:\n        /* \"#utility.yul\":2150:2159   */\n      dup3\n        /* \"#utility.yul\":2137:2160   */\n      calldataload\n        /* \"#utility.yul\":2179:2197   */\n      0xffffffffffffffff\n        /* \"#utility.yul\":2220:2222   */\n      dup1\n        /* \"#utility.yul\":2212:2218   */\n      dup3\n        /* \"#utility.yul\":2209:2223   */\n      gt\n        /* \"#utility.yul\":2206:2240   */\n      iszero\n      tag_61\n      jumpi\n        /* \"#utility.yul\":2236:2237   */\n      0x00\n        /* \"#utility.yul\":2233:2234   */\n      dup1\n        /* \"#utility.yul\":2226:2238   */\n      revert\n        /* \"#utility.yul\":2206:2240   */\n    tag_61:\n        /* \"#utility.yul\":2274:2280   */\n      dup2\n        /* \"#utility.yul\":2263:2272   */\n      dup6\n        /* \"#utility.yul\":2259:2281   */\n      add\n        /* \"#utility.yul\":2249:2281   */\n      swap2\n      pop\n        /* \"#utility.yul\":2319:2326   */\n      dup6\n        /* \"#utility.yul\":2312:2316   */\n      0x1f\n        /* \"#utility.yul\":2308:2310   */\n      dup4\n        /* \"#utility.yul\":2304:2317   */\n      add\n        /* \"#utility.yul\":2300:2327   */\n      slt\n        /* \"#utility.yul\":2290:2345   */\n      tag_62\n      jumpi\n        /* \"#utility.yul\":2341:2342   */\n      0x00\n        /* \"#utility.yul\":2338:2339   */\n      dup1\n        /* \"#utility.yul\":2331:2343   */\n      revert\n        /* \"#utility.yul\":2290:2345   */\n    tag_62:\n        /* \"#utility.yul\":2381:2383   */\n      dup2\n        /* \"#utility.yul\":2368:2384   */\n      calldataload\n        /* \"#utility.yul\":2407:2409   */\n      dup2\n        /* \"#utility.yul\":2399:2405   */\n      dup2\n        /* \"#utility.yul\":2396:2410   */\n      gt\n        /* \"#utility.yul\":2393:2427   */\n      iszero\n      tag_63\n      jumpi\n        /* \"#utility.yul\":2423:2424   */\n      0x00\n        /* \"#utility.yul\":2420:2421   */\n      dup1\n        /* \"#utility.yul\":2413:2425   */\n      revert\n        /* \"#utility.yul\":2393:2427   */\n    tag_63:\n        /* \"#utility.yul\":2468:2475   */\n      dup7\n        /* \"#utility.yul\":2463:2465   */\n      0x20\n        /* \"#utility.yul\":2454:2460   */\n      dup3\n        /* \"#utility.yul\":2450:2452   */\n      dup6\n        /* \"#utility.yul\":2446:2461   */\n      add\n        /* \"#utility.yul\":2442:2466   */\n      add\n        /* \"#utility.yul\":2439:2476   */\n      gt\n        /* \"#utility.yul\":2436:2493   */\n      iszero\n      tag_64\n      jumpi\n        /* \"#utility.yul\":2489:2490   */\n      0x00\n        /* \"#utility.yul\":2486:2487   */\n      dup1\n        /* \"#utility.yul\":2479:2491   */\n      revert\n        /* \"#utility.yul\":2436:2493   */\n    tag_64:\n        /* \"#utility.yul\":2520:2522   */\n      0x20\n        /* \"#utility.yul\":2512:2523   */\n      swap3\n      swap1\n      swap3\n      add\n      swap7\n        /* \"#utility.yul\":2542:2548   */\n      swap2\n      swap6\n      pop\n        /* \"#utility.yul\":1963:2554   */\n      swap1\n      swap4\n      pop\n      pop\n      pop\n      pop\n      jump\t// out\n        /* \"#utility.yul\":2559:2739   */\n    tag_19:\n        /* \"#utility.yul\":2618:2624   */\n      0x00\n        /* \"#utility.yul\":2671:2673   */\n      0x20\n        /* \"#utility.yul\":2659:2668   */\n      dup3\n        /* \"#utility.yul\":2650:2657   */\n      dup5\n        /* \"#utility.yul\":2646:2669   */\n      sub\n        /* \"#utility.yul\":2642:2674   */\n      slt\n        /* \"#utility.yul\":2639:2691   */\n      iszero\n      tag_66\n      jumpi\n        /* \"#utility.yul\":2687:2688   */\n      0x00\n        /* \"#utility.yul\":2684:2685   */\n      dup1\n        /* \"#utility.yul\":2677:2689   */\n      revert\n        /* \"#utility.yul\":2639:2691   */\n    tag_66:\n      pop\n        /* \"#utility.yul\":2710:2733   */\n      calldataload\n      swap2\n        /* \"#utility.yul\":2559:2739   */\n      swap1\n      pop\n      jump\t// out\n        /* \"#utility.yul\":3134:3679   */\n    tag_30:\n        /* \"#utility.yul\":3227:3231   */\n      0x00\n        /* \"#utility.yul\":3233:3239   */\n      dup1\n        /* \"#utility.yul\":3293:3304   */\n      dup4\n        /* \"#utility.yul\":3280:3305   */\n      calldataload\n        /* \"#utility.yul\":3387:3389   */\n      0x1e\n        /* \"#utility.yul\":3383:3390   */\n      not\n        /* \"#utility.yul\":3372:3380   */\n      dup5\n        /* \"#utility.yul\":3356:3370   */\n      calldatasize\n        /* \"#utility.yul\":3352:3381   */\n      sub\n        /* \"#utility.yul\":3348:3391   */\n      add\n        /* \"#utility.yul\":3328:3346   */\n      dup2\n        /* \"#utility.yul\":3324:3392   */\n      slt\n        /* \"#utility.yul\":3314:3410   */\n      tag_70\n      jumpi\n        /* \"#utility.yul\":3406:3407   */\n      0x00\n        /* \"#utility.yul\":3403:3404   */\n      dup1\n        /* \"#utility.yul\":3396:3408   */\n      revert\n        /* \"#utility.yul\":3314:3410   */\n    tag_70:\n        /* \"#utility.yul\":3433:3466   */\n      dup4\n      add\n        /* \"#utility.yul\":3485:3505   */\n      dup1\n      calldataload\n      swap2\n      pop\n        /* \"#utility.yul\":3528:3546   */\n      0xffffffffffffffff\n        /* \"#utility.yul\":3517:3547   */\n      dup3\n      gt\n        /* \"#utility.yul\":3514:3564   */\n      iszero\n      tag_71\n      jumpi\n        /* \"#utility.yul\":3560:3561   */\n      0x00\n        /* \"#utility.yul\":3557:3558   */\n      dup1\n        /* \"#utility.yul\":3550:3562   */\n      revert\n        /* \"#utility.yul\":3514:3564   */\n    tag_71:\n        /* \"#utility.yul\":3593:3597   */\n      0x20\n        /* \"#utility.yul\":3581:3598   */\n      add\n      swap2\n      pop\n        /* \"#utility.yul\":3644:3645   */\n      0x05\n        /* \"#utility.yul\":3640:3654   */\n      dup2\n      swap1\n      shl\n        /* \"#utility.yul\":3624:3638   */\n      calldatasize\n        /* \"#utility.yul\":3620:3655   */\n      sub\n        /* \"#utility.yul\":3610:3656   */\n      dup3\n      sgt\n        /* \"#utility.yul\":3607:3673   */\n      iszero\n      tag_72\n      jumpi\n        /* \"#utility.yul\":3669:3670   */\n      0x00\n        /* \"#utility.yul\":3666:3667   */\n      dup1\n        /* \"#utility.yul\":3659:3671   */\n      revert\n        /* \"#utility.yul\":3607:3673   */\n    tag_72:\n        /* \"#utility.yul\":3134:3679   */\n      swap3\n      pop\n      swap3\n      swap1\n      pop\n      jump\t// out\n        /* \"#utility.yul\":3684:3811   */\n    tag_33:\n        /* \"#utility.yul\":3745:3755   */\n      0x4e487b71\n        /* \"#utility.yul\":3740:3743   */\n      0xe0\n        /* \"#utility.yul\":3736:3756   */\n      shl\n        /* \"#utility.yul\":3733:3734   */\n      0x00\n        /* \"#utility.yul\":3726:3757   */\n      mstore\n        /* \"#utility.yul\":3776:3780   */\n      0x32\n        /* \"#utility.yul\":3773:3774   */\n      0x04\n        /* \"#utility.yul\":3766:3781   */\n      mstore\n        /* \"#utility.yul\":3800:3804   */\n      0x24\n        /* \"#utility.yul\":3797:3798   */\n      0x00\n        /* \"#utility.yul\":3790:3805   */\n      revert\n        /* \"#utility.yul\":3816:4038   */\n    tag_37:\n        /* \"#utility.yul\":3881:3890   */\n      dup1\n      dup3\n      add\n        /* \"#utility.yul\":3902:3912   */\n      dup1\n      dup3\n      gt\n        /* \"#utility.yul\":3899:4032   */\n      iszero\n      tag_75\n      jumpi\n        /* \"#utility.yul\":3954:3964   */\n      0x4e487b71\n        /* \"#utility.yul\":3949:3952   */\n      0xe0\n        /* \"#utility.yul\":3945:3965   */\n      shl\n        /* \"#utility.yul\":3942:3943   */\n      0x00\n        /* \"#utility.yul\":3935:3966   */\n      mstore\n        /* \"#utility.yul\":3989:3993   */\n      0x11\n        /* \"#utility.yul\":3986:3987   */\n      0x04\n        /* \"#utility.yul\":3979:3994   */\n      mstore\n        /* \"#utility.yul\":4017:4021   */\n      0x24\n        /* \"#utility.yul\":4014:4015   */\n      0x00\n        /* \"#utility.yul\":4007:4022   */\n      revert\n        /* \"#utility.yul\":3899:4032   */\n    tag_75:\n        /* \"#utility.yul\":3816:4038   */\n      swap3\n      swap2\n      pop\n      pop\n      jump\t// out\n        /* \"#utility.yul\":4043:4337   */\n    tag_39:\n        /* \"#utility.yul\":4110:4116   */\n      0x00\n        /* \"#utility.yul\":4163:4165   */\n      0x20\n        /* \"#utility.yul\":4151:4160   */\n      dup3\n        /* \"#utility.yul\":4142:4149   */\n      dup5\n        /* \"#utility.yul\":4138:4161   */\n      sub\n        /* \"#utility.yul\":4134:4166   */\n      slt\n        /* \"#utility.yul\":4131:4183   */\n      iszero\n      tag_77\n      jumpi\n        /* \"#utility.yul\":4179:4180   */\n      0x00\n        /* \"#utility.yul\":4176:4177   */\n      dup1\n        /* \"#utility.yul\":4169:4181   */\n      revert\n        /* \"#utility.yul\":4131:4183   */\n    tag_77:\n        /* \"#utility.yul\":4205:4228   */\n      dup2\n      calldataload\n      sub(shl(0xa0, 0x01), 0x01)\n        /* \"#utility.yul\":4257:4288   */\n      dup2\n      and\n        /* \"#utility.yul\":4247:4289   */\n      dup2\n      eq\n        /* \"#utility.yul\":4237:4307   */\n      tag_78\n      jumpi\n        /* \"#utility.yul\":4303:4304   */\n      0x00\n        /* \"#utility.yul\":4300:4301   */\n      dup1\n        /* \"#utility.yul\":4293:4305   */\n      revert\n        /* \"#utility.yul\":4237:4307   */\n    tag_78:\n        /* \"#utility.yul\":4326:4331   */\n      swap4\n        /* \"#utility.yul\":4043:4337   */\n      swap3\n      pop\n      pop\n      pop\n      jump\t// out\n\n    auxdata: 0xa2646970667358221220f56888dfcf1eb0238e57ffcc8ac0ec6c794eaf2b22f25f3d88a8c8e471fe2eac64736f6c63430008130033\n}\n",
				"bytecode": {
					"linkReferences": {},
					"object": "60806040526000805534801561001457600080fd5b5061045f806100246000396000f3fe608060405234801561001057600080fd5b506004361061004c5760003560e01c806340691db4146100515780634585e33b1461007b5780635ced058e14610090578063f937f910146100b9575b600080fd5b61006461005f3660046101a9565b6100d0565b604051610072929190610288565b60405180910390f35b61008e6100893660046102e0565b610131565b005b6100a161009e366004610352565b90565b6040516001600160a01b039091168152602001610072565b6100c260005481565b604051908152602001610072565b6001606060006101016100e660c087018761036b565b60018181106100f7576100f76103bc565b9050602002013590565b604080516001600160a01b0383166020820152919250016040516020818303038152906040529150509250929050565b600160008082825461014391906103d2565b9091555060009050610157828401846103f9565b6040519091506001600160a01b038216907f9dc7dc9b337aa2897cc3559260e1bf9eae7db329f1121de7c27a28fca8b2eed190600090a2505050565b634e487b7160e01b600052604160045260246000fd5b600080604083850312156101bc57600080fd5b823567ffffffffffffffff808211156101d457600080fd5b9084019061010082870312156101e957600080fd5b909250602084013590808211156101ff57600080fd5b818501915085601f83011261021357600080fd5b81358181111561022557610225610193565b604051601f8201601f19908116603f0116810190838211818310171561024d5761024d610193565b8160405282815288602084870101111561026657600080fd5b8260208601602083013760006020848301015280955050505050509250929050565b821515815260006020604081840152835180604085015260005b818110156102be578581018301518582016060015282016102a2565b506000606082860101526060601f19601f830116850101925050509392505050565b600080602083850312156102f357600080fd5b823567ffffffffffffffff8082111561030b57600080fd5b818501915085601f83011261031f57600080fd5b81358181111561032e57600080fd5b86602082850101111561034057600080fd5b60209290920196919550909350505050565b60006020828403121561036457600080fd5b5035919050565b6000808335601e1984360301811261038257600080fd5b83018035915067ffffffffffffffff82111561039d57600080fd5b6020019150600581901b36038213156103b557600080fd5b9250929050565b634e487b7160e01b600052603260045260246000fd5b808201808211156103f357634e487b7160e01b600052601160045260246000fd5b92915050565b60006020828403121561040b57600080fd5b81356001600160a01b038116811461042257600080fd5b939250505056fea2646970667358221220f56888dfcf1eb0238e57ffcc8ac0ec6c794eaf2b22f25f3d88a8c8e471fe2eac64736f6c63430008130033",
					"opcodes": "PUSH1 0x80 PUSH1 0x40 MSTORE PUSH1 0x0 DUP1 SSTORE CALLVALUE DUP1 ISZERO PUSH2 0x14 JUMPI PUSH1 0x0 DUP1 REVERT JUMPDEST POP PUSH2 0x45F DUP1 PUSH2 0x24 PUSH1 0x0 CODECOPY PUSH1 0x0 RETURN INVALID PUSH1 0x80 PUSH1 0x40 MSTORE CALLVALUE DUP1 ISZERO PUSH2 0x10 JUMPI PUSH1 0x0 DUP1 REVERT JUMPDEST POP PUSH1 0x4 CALLDATASIZE LT PUSH2 0x4C JUMPI PUSH1 0x0 CALLDATALOAD PUSH1 0xE0 SHR DUP1 PUSH4 0x40691DB4 EQ PUSH2 0x51 JUMPI DUP1 PUSH4 0x4585E33B EQ PUSH2 0x7B JUMPI DUP1 PUSH4 0x5CED058E EQ PUSH2 0x90 JUMPI DUP1 PUSH4 0xF937F910 EQ PUSH2 0xB9 JUMPI JUMPDEST PUSH1 0x0 DUP1 REVERT JUMPDEST PUSH2 0x64 PUSH2 0x5F CALLDATASIZE PUSH1 0x4 PUSH2 0x1A9 JUMP JUMPDEST PUSH2 0xD0 JUMP JUMPDEST PUSH1 0x40 MLOAD PUSH2 0x72 SWAP3 SWAP2 SWAP1 PUSH2 0x288 JUMP JUMPDEST PUSH1 0x40 MLOAD DUP1 SWAP2 SUB SWAP1 RETURN JUMPDEST PUSH2 0x8E PUSH2 0x89 CALLDATASIZE PUSH1 0x4 PUSH2 0x2E0 JUMP JUMPDEST PUSH2 0x131 JUMP JUMPDEST STOP JUMPDEST PUSH2 0xA1 PUSH2 0x9E CALLDATASIZE PUSH1 0x4 PUSH2 0x352 JUMP JUMPDEST SWAP1 JUMP JUMPDEST PUSH1 0x40 MLOAD PUSH1 0x1 PUSH1 0x1 PUSH1 0xA0 SHL SUB SWAP1 SWAP2 AND DUP2 MSTORE PUSH1 0x20 ADD PUSH2 0x72 JUMP JUMPDEST PUSH2 0xC2 PUSH1 0x0 SLOAD DUP2 JUMP JUMPDEST PUSH1 0x40 MLOAD SWAP1 DUP2 MSTORE PUSH1 0x20 ADD PUSH2 0x72 JUMP JUMPDEST PUSH1 0x1 PUSH1 0x60 PUSH1 0x0 PUSH2 0x101 PUSH2 0xE6 PUSH1 0xC0 DUP8 ADD DUP8 PUSH2 0x36B JUMP JUMPDEST PUSH1 0x1 DUP2 DUP2 LT PUSH2 0xF7 JUMPI PUSH2 0xF7 PUSH2 0x3BC JUMP JUMPDEST SWAP1 POP PUSH1 0x20 MUL ADD CALLDATALOAD SWAP1 JUMP JUMPDEST PUSH1 0x40 DUP1 MLOAD PUSH1 0x1 PUSH1 0x1 PUSH1 0xA0 SHL SUB DUP4 AND PUSH1 0x20 DUP3 ADD MSTORE SWAP2 SWAP3 POP ADD PUSH1 0x40 MLOAD PUSH1 0x20 DUP2 DUP4 SUB SUB DUP2 MSTORE SWAP1 PUSH1 0x40 MSTORE SWAP2 POP POP SWAP3 POP SWAP3 SWAP1 POP JUMP JUMPDEST PUSH1 0x1 PUSH1 0x0 DUP1 DUP3 DUP3 SLOAD PUSH2 0x143 SWAP2 SWAP1 PUSH2 0x3D2 JUMP JUMPDEST SWAP1 SWAP2 SSTORE POP PUSH1 0x0 SWAP1 POP PUSH2 0x157 DUP3 DUP5 ADD DUP5 PUSH2 0x3F9 JUMP JUMPDEST PUSH1 0x40 MLOAD SWAP1 SWAP2 POP PUSH1 0x1 PUSH1 0x1 PUSH1 0xA0 SHL SUB DUP3 AND SWAP1 PUSH32 0x9DC7DC9B337AA2897CC3559260E1BF9EAE7DB329F1121DE7C27A28FCA8B2EED1 SWAP1 PUSH1 0x0 SWAP1 LOG2 POP POP POP JUMP JUMPDEST PUSH4 0x4E487B71 PUSH1 0xE0 SHL PUSH1 0x0 MSTORE PUSH1 0x41 PUSH1 0x4 MSTORE PUSH1 0x24 PUSH1 0x0 REVERT JUMPDEST PUSH1 0x0 DUP1 PUSH1 0x40 DUP4 DUP6 SUB SLT ISZERO PUSH2 0x1BC JUMPI PUSH1 0x0 DUP1 REVERT JUMPDEST DUP3 CALLDATALOAD PUSH8 0xFFFFFFFFFFFFFFFF DUP1 DUP3 GT ISZERO PUSH2 0x1D4 JUMPI PUSH1 0x0 DUP1 REVERT JUMPDEST SWAP1 DUP5 ADD SWAP1 PUSH2 0x100 DUP3 DUP8 SUB SLT ISZERO PUSH2 0x1E9 JUMPI PUSH1 0x0 DUP1 REVERT JUMPDEST SWAP1 SWAP3 POP PUSH1 0x20 DUP5 ADD CALLDATALOAD SWAP1 DUP1 DUP3 GT ISZERO PUSH2 0x1FF JUMPI PUSH1 0x0 DUP1 REVERT JUMPDEST DUP2 DUP6 ADD SWAP2 POP DUP6 PUSH1 0x1F DUP4 ADD SLT PUSH2 0x213 JUMPI PUSH1 0x0 DUP1 REVERT JUMPDEST DUP2 CALLDATALOAD DUP2 DUP2 GT ISZERO PUSH2 0x225 JUMPI PUSH2 0x225 PUSH2 0x193 JUMP JUMPDEST PUSH1 0x40 MLOAD PUSH1 0x1F DUP3 ADD PUSH1 0x1F NOT SWAP1 DUP2 AND PUSH1 0x3F ADD AND DUP2 ADD SWAP1 DUP4 DUP3 GT DUP2 DUP4 LT OR ISZERO PUSH2 0x24D JUMPI PUSH2 0x24D PUSH2 0x193 JUMP JUMPDEST DUP2 PUSH1 0x40 MSTORE DUP3 DUP2 MSTORE DUP9 PUSH1 0x20 DUP5 DUP8 ADD ADD GT ISZERO PUSH2 0x266 JUMPI PUSH1 0x0 DUP1 REVERT JUMPDEST DUP3 PUSH1 0x20 DUP7 ADD PUSH1 0x20 DUP4 ADD CALLDATACOPY PUSH1 0x0 PUSH1 0x20 DUP5 DUP4 ADD ADD MSTORE DUP1 SWAP6 POP POP POP POP POP POP SWAP3 POP SWAP3 SWAP1 POP JUMP JUMPDEST DUP3 ISZERO ISZERO DUP2 MSTORE PUSH1 0x0 PUSH1 0x20 PUSH1 0x40 DUP2 DUP5 ADD MSTORE DUP4 MLOAD DUP1 PUSH1 0x40 DUP6 ADD MSTORE PUSH1 0x0 JUMPDEST DUP2 DUP2 LT ISZERO PUSH2 0x2BE JUMPI DUP6 DUP2 ADD DUP4 ADD MLOAD DUP6 DUP3 ADD PUSH1 0x60 ADD MSTORE DUP3 ADD PUSH2 0x2A2 JUMP JUMPDEST POP PUSH1 0x0 PUSH1 0x60 DUP3 DUP7 ADD ADD MSTORE PUSH1 0x60 PUSH1 0x1F NOT PUSH1 0x1F DUP4 ADD AND DUP6 ADD ADD SWAP3 POP POP POP SWAP4 SWAP3 POP POP POP JUMP JUMPDEST PUSH1 0x0 DUP1 PUSH1 0x20 DUP4 DUP6 SUB SLT ISZERO PUSH2 0x2F3 JUMPI PUSH1 0x0 DUP1 REVERT JUMPDEST DUP3 CALLDATALOAD PUSH8 0xFFFFFFFFFFFFFFFF DUP1 DUP3 GT ISZERO PUSH2 0x30B JUMPI PUSH1 0x0 DUP1 REVERT JUMPDEST DUP2 DUP6 ADD SWAP2 POP DUP6 PUSH1 0x1F DUP4 ADD SLT PUSH2 0x31F JUMPI PUSH1 0x0 DUP1 REVERT JUMPDEST DUP2 CALLDATALOAD DUP2 DUP2 GT ISZERO PUSH2 0x32E JUMPI PUSH1 0x0 DUP1 REVERT JUMPDEST DUP7 PUSH1 0x20 DUP3 DUP6 ADD ADD GT ISZERO PUSH2 0x340 JUMPI PUSH1 0x0 DUP1 REVERT JUMPDEST PUSH1 0x20 SWAP3 SWAP1 SWAP3 ADD SWAP7 SWAP2 SWAP6 POP SWAP1 SWAP4 POP POP POP POP JUMP JUMPDEST PUSH1 0x0 PUSH1 0x20 DUP3 DUP5 SUB SLT ISZERO PUSH2 0x364 JUMPI PUSH1 0x0 DUP1 REVERT JUMPDEST POP CALLDATALOAD SWAP2 SWAP1 POP JUMP JUMPDEST PUSH1 0x0 DUP1 DUP4 CALLDATALOAD PUSH1 0x1E NOT DUP5 CALLDATASIZE SUB ADD DUP2 SLT PUSH2 0x382 JUMPI PUSH1 0x0 DUP1 REVERT JUMPDEST DUP4 ADD DUP1 CALLDATALOAD SWAP2 POP PUSH8 0xFFFFFFFFFFFFFFFF DUP3 GT ISZERO PUSH2 0x39D JUMPI PUSH1 0x0 DUP1 REVERT JUMPDEST PUSH1 0x20 ADD SWAP2 POP PUSH1 0x5 DUP2 SWAP1 SHL CALLDATASIZE SUB DUP3 SGT ISZERO PUSH2 0x3B5 JUMPI PUSH1 0x0 DUP1 REVERT JUMPDEST SWAP3 POP SWAP3 SWAP1 POP JUMP JUMPDEST PUSH4 0x4E487B71 PUSH1 0xE0 SHL PUSH1 0x0 MSTORE PUSH1 0x32 PUSH1 0x4 MSTORE PUSH1 0x24 PUSH1 0x0 REVERT JUMPDEST DUP1 DUP3 ADD DUP1 DUP3 GT ISZERO PUSH2 0x3F3 JUMPI PUSH4 0x4E487B71 PUSH1 0xE0 SHL PUSH1 0x0 MSTORE PUSH1 0x11 PUSH1 0x4 MSTORE PUSH1 0x24 PUSH1 0x0 REVERT JUMPDEST SWAP3 SWAP2 POP POP JUMP JUMPDEST PUSH1 0x0 PUSH1 0x20 DUP3 DUP5 SUB SLT ISZERO PUSH2 0x40B JUMPI PUSH1 0x0 DUP1 REVERT JUMPDEST DUP2 CALLDATALOAD PUSH1 0x1 PUSH1 0x1 PUSH1 0xA0 SHL SUB DUP2 AND DUP2 EQ PUSH2 0x422 JUMPI PUSH1 0x0 DUP1 REVERT JUMPDEST SWAP4 SWAP3 POP POP POP JUMP INVALID LOG2 PUSH5 0x6970667358 0x22 SLT KECCAK256 CREATE2 PUSH9 0x88DFCF1EB0238E57FF 0xCC DUP11 0xC0 0xEC PUSH13 0x794EAF2B22F25F3D88A8C8E471 INVALID 0x2E 0xAC PUSH5 0x736F6C6343 STOP ADDMOD SGT STOP CALLER "
				},
				"gasEstimates": {
					"creation": {
						"codeDepositCost": "223800",
						"executionCost": "5269",
						"totalCost": "229069"
					},
					"external": {
						"bytes32ToAddress(bytes32)": "312",
						"checkLog((uint256,uint256,bytes32,uint256,bytes32,address,bytes32[],bytes),bytes)": "infinite",
						"counted()": "2339",
						"performUpkeep(bytes)": "26016"
					}
				},
				"methodIdentifiers": {
					"bytes32ToAddress(bytes32)": "5ced058e",
					"checkLog((uint256,uint256,bytes32,uint256,bytes32,address,bytes32[],bytes),bytes)": "40691db4",
					"counted()": "f937f910",
					"performUpkeep(bytes)": "4585e33b"
				}
			},
			"storageLayout": {
				"storage": [
					{
						"astId": 46,
						"contract": "chainlink-automation/CountWithLog.sol:CountWithLog",
						"label": "counted",
						"offset": 0,
						"slot": "0",
						"type": "t_uint256"
					}
				],
				"types": {
					"t_uint256": {
						"encoding": "inplace",
						"label": "uint256",
						"numberOfBytes": "32"
					}
				}
			},
			"userdoc": {
				"kind": "user",
				"methods": {},
				"version": 1
			}
		}
	}
}